:020000040800F2
:10000000F8090020350200083318000831180008EC
:1000100041020008430200084502000800000000F9
:10002000000000000000000000000000FD180008B3
:100030009D080008000000005D1800080119000874
:100040004F0200084F0200084F0200084F0200084C
:100050004F0200084F020008A50800084F020008E0
:100060004F0200084F0200084F0200084F0200082C
:100070004F0200084F0200084F0200084F0200081C
:100080004F0200084F0200084F0200080000000065
:100090000000000000000000000000004F02000807
:1000A0004F0200084F0200084F0200084F020008EC
:1000B0004F0200084F0200084F0200084F020008DC
:1000C0004F0200084F0200084F0200084F020008CC
:1000D0004F0200084F0200084F0200080000000015
:1000E000AD0800084F0200084F02000800000000A1
:1000F0000000000000000000000000004F020008A7
:10010000000000004F0200084F0200084F020008E4
:1001100000000000000000000000000000000000DF
:100120004F0200084F0200084F0200084F0200086B
:100130004F02000800000000000000000000000066
:100140000000000000000000000000004F02000856
:100150004F0200084F0200084F0200084F0200083B
:100160004F0200084F0200080000000000000000DD
:10017000000000000000000000000000000000007F
:10018000000000004F020008000000000000000016
:100190004F02000800F002F800F03CF80AA090E8D6
:1001A000000C82448344AAF10107DA4501D100F032
:1001B00031F8AFF2090EBAE80F0013F0010F18BFC3
:1001C000FB1A43F0010318473821000058210000B2
:1001D000103A24BF78C878C1FAD8520724BF30C873
:1001E00030C144BF04680C60704700000023002445
:1001F00000250026103A28BF78C1FBD8520728BF37
:1002000030C148BF0B6070471FB502F065F81FBDD5
:1002100010B510BD00F01FF91146FFF7F5FF01F012
:10022000E1FF00F03DF903B4FFF7F2FF03BC00F07B
:1002300041F900000948804709480047FEE7FEE70A
:10024000FEE7FEE7FEE7FEE7FEE7FEE7FEE7FEE786
:1002500004480549054A064B70470000511900083B
:1002600095010008F8030020F8090020F805002097
:10027000F805002010B5431C02E010F8011B71B115
:100280008107FAD14FF0013202C88C1A8C4314EA6C
:10029000C211F9D0C01A0A0603D0C01E10BDC01A80
:1002A00010BD0A0401D0801E10BD0902FCD0401E02
:1002B00010BD032A40F2308010F0030C00F01580CE
:1002C00011F8013BBCF1020F624498BF11F801CB59
:1002D00000F8013B38BF11F8013BA2F1040298BFBE
:1002E00000F801CB38BF00F8013B11F0030300F028
:1002F0003780083AC0F0088051F8043B083A51F8BA
:1003000004CBA0E80810F5E7121D5CBF51F8043BD0
:1003100040F8043BAFF30080D20724BF11F8013B43
:1003200011F801CB48BF11F8012B24BF00F8013BA5
:1003300000F801CB48BF00F8012B704701B5FFF76B
:10034000B8FF01BD01F0FF03114601B543EA0322E6
:1003500042EA024200F038F801BD7047704770472A
:1003600010B5203AC0F00B80B1E81850203AA0E850
:100370001850B1E81850A0E81850BFF4F5AF5FEA84
:10038000027C24BFB1E81850A0E8185044BF18C937
:1003900018C0BDE810405FEA827C24BF51F8043BDE
:1003A00040F8043B08BF7047D20728BF31F8023B32
:1003B00048BF11F8012B28BF20F8023B48BF00F8C6
:1003C000012B70474FF000020429C0F0128010F09A
:1003D000030C00F01B80CCF1040CBCF1020F18BF21
:1003E00000F8012BA8BF20F8022BA1EB0C0100F0B4
:1003F0000DB85FEAC17C24BF00F8012B00F8012B87
:1004000048BF00F8012B70474FF0000200B51346BB
:1004100094469646203922BFA0E80C50A0E80C5024
:10042000B1F12001BFF4F7AF090728BFA0E80C50D5
:1004300048BF0CC05DF804EB890028BF40F8042BCE
:1004400008BF704748BF20F8022B11F0804F18BF3B
:1004500000F8012B7047754600F028F8AE460500FD
:100460006946534620F00700854618B020B5FFF7CF
:10047000EFFEBDE820404FF000064FF000074FF0C0
:1004800000084FF0000B21F00701AC46ACE8C009B2
:10049000ACE8C009ACE8C009ACE8C0098D467047BB
:1004A0000446AFF300802046FFF7BDFE00487047CA
:1004B0009803002001491820ABBEFEE72600020089
:1004C00070470000F0B536A29BB00FCA06AC84E8B6
:1004D0000F0037A20AAC0FCA84E80F0038A10EAC97
:1004E0000FC984E80F003AA312AC0FCB84E80F00C9
:1004F0003BA216AC0FCA84E80F003D4800900B23C6
:10050000012206A9022001F0A2FBE0BB0125384828
:100510001026801CCDE9045000240820344FCDE97A
:100520000256CDE90004BF1F14230AAA0221F8884D
:1005300001F030FB38BB07F10A00CDE9045004207C
:10054000CDE90246CDE90004142312AA0221F8885D
:1005500001F020FBB8B907F10C00CDE904501220DE
:10056000CDE90246CDE9000414230EAA0221F88841
:1005700001F010FB38B9CDE90246142307F10E0053
:1005800016AA022100E008E0CDE90450CDE900649C
:10059000F88801F0FFFA002800D047201BB0F0BD1A
:1005A0008CF997A6EE94E3BCF821B26000800000BD
:1005B0008CF997A6EE94E3BCF821B26001800000AC
:1005C0008CF997A6EE94E3BCF821B260028000009B
:1005D0008CF997A6EE94E3BCF821B260038000008A
:1005E0008CF997A6EE94E3BCF821B2600480000079
:1005F0000E00002010B502460621002001F010FC7C
:10060000002800D0672010BD0B480A494FF4007243
:1006100001604FF48271416000218160C16001611D
:10062000C0E90512016241620722C161C0E90A12F4
:1006300000F0A8BD003001408400002070B586B0F5
:10064000040008D11048016841F00401016000680D
:1006500000F0040005900D4E0D4D694636F814006B
:1006600000900120019002900220039055F8240090
:1006700000F042F936F8141055F82400002200F07A
:1006800004FA06B070BD000030380240EA220008CB
:10069000380000200449054A31F8101052F82000B3
:1006A000002200F0F2B90000EA2200083800002021
:1006B0000449054A31F8101052F82000012200F0D8
:1006C000E4B90000EA2200083800002010B501213A
:1006D000034800F0D5F9012800D0002010BD00002B
:1006E0000000024070B50A4D4FF48074002221468C
:1006F000284600F0CAF9052000F0E5F8012221465D
:10070000284600F0C2F9BDE87040052000F0DBB8D3
:10071000000002402DE9F04788B088468246FF205D
:1007200020A18DF81800D1E90001CDE90401DFF81E
:100730007C901646002422460221484600F0A5F986
:100740000F27052301AA04A95046009700F004FED4
:100750009DF80400022815D1BDF8075095B1B542A7
:100760000ED935460CE0012303AA06A9504600978E
:1007700000F0F2FD9DF80C1008F80410641CE4B2BF
:10078000AC42F0D301220221484600F07EF900205D
:10079000009000BF401C00900228FADB08B0204601
:1007A000BDE8F0870B0000000000000000000240E0
:1007B0002DE9FF4F8B4630A1C5B0D1E90001529E13
:1007C000CDE943012EA11F46D1E90001CDE9410148
:1007D000924600244FF00108062000F095F901F040
:1007E00063FD0020009040F2654000BF0099491C65
:1007F00000918142F9DBDFF8909000220221484607
:1008000000F043F90F25052341AA43A90095459817
:1008100000F0A2FDB8F1000F01D001F029FD9DF814
:10082000040102280DD04FF0FF3401220221484676
:1008300000F02BF9062000F072F949B02046BDE81F
:10084000F08F9DF80501B919884211D337B13B46A5
:1008500001AA59460095459800F07EFD002EE4D08F
:10086000334601AA51460095459800F075FDDCE736
:100870006FF00104D9E700000A000000000000004A
:10088000AA00000000000000000002400149012011
:1008900008607047143C014000F0FCB87047062027
:1008A00000F032B9012000F01BB8000010B50220A2
:1008B00000F016F801490120087010BD000000206A
:1008C000062000F02CB931B500F0E4F8044600F041
:1008D000E1F80099001B8842F9D338BD00F0FCBE56
:1008E000044910B50A68024202D00860FFF7F6FF1B
:1008F00010BD0000143C01402DE9F84FDFF860B155
:1009000000224FF001084FF0030A4FF00F090BF1DE
:10091000040E00BF0B6808FA02F42340A3426ED114
:100920004D68022D01D0122D0ED1D50800EB850C9B
:10093000DCF820505607F70E09FA07F6B5430E69A2
:10094000BE402E43CCF82060066855000F790AFAA5
:1009500005FC07F0030726EA0C06AF4037430760A3
:100960004E68012E05D0022E03D0112E01D0122E7A
:100970000ED18668CF6826EA0C06AF403743876001
:100980004668A6430C79C4F3001494403443446091
:10099000C6688C6826EA0C06AC403443C4604C68D8
:1009A000E40056D52F4C256845F480452560246821
:1009B00022F0030504F4804400942B4C2E19D6F841
:1009C000084895072F0F09FA07F5AC43274DA842B1
:1009D00001D1002515E0264DA84201D1012510E0E6
:1009E000244DA84201D102250BE0234DA84201D19C
:1009F000032506E0214DA84202D1042501E028E0AC
:100A00000525BD402543C6F80858DBF800405D4683
:100A10004E689C43F60300D51C432C60DEF8004072
:100A200075464E689C43B60300D51C432C600C4DA4
:100A300008352C684E689C43F60200D51C432C6098
:100A4000074D0C352C684E689C43B60200D51C43FC
:100A50002C60521C102AFFF45DAFBDE8F88F000037
:100A6000003C014044380240003001400000024098
:100A70000004024000080240000C02400010024046
:100A80000069084000D0012070470AB181617047B9
:100A90000904FBE701480068704700005800002087
:100AA00002480168491C016070470000580000209E
:100AB0000B4810B5016841F400710160016841F410
:100AC00080610160016841F480710160032000F0E1
:100AD00051F80F2000F006F800F015F8002010BDC6
:100AE000003C024010B5044600F05CF94FF47A7106
:100AF000B0FBF1F000F085FD00222146501E00F011
:100B000019F8002010BD704700F01F02012191402C
:100B10004009800000F1E020C0F88011704700F02B
:100B20001F02012191404009800000F1E020C0F83F
:100B300000117047F0B40E4B1B680C46C3F3022340
:100B4000C3F10705042D00D90425191D072901D279
:100B5000002300E0DB1E012606FA05F1491E2140B4
:100B600099409E40761E16403143F0BC00F062BEB4
:100B70000CED00E0064900F0070208684FF6FF039D
:100B8000184040EA0220034A104308607047000002
:100B90000CED00E00000FA052DE9F05FDFF8FCA1A4
:100BA00004460F46DAF80000DFF8F48100F00F0188
:100BB0007B4807F0FF0941F2883508F10808B9427F
:100BC00062D28AF80090DAF8001001F00F01B94201
:100BD0007ED12178890707D5D8F80020A36822F0B4
:100BE000F0021A43C8F800202178C9072ED06168A6
:100BF00001291AD002291BD0032919D000688007C7
:100C0000002865DAD8F80000464620F003000843C3
:100C1000C8F80000FFF73EFF07466068012810D0C3
:100C200002281AD003281ED029E000688003E7E7D5
:100C300000688001E4E700BFFFF72CFFC01BA8425B
:100C400059D83068C0F381000128F5D189E000BF90
:100C5000FFF720FFC01BA8424DD83068C0F38100C9
:100C60000228F5D17DE03068FFF714FFC01BA842D1
:100C7000F9D940E0FFF70EFFC01BA8423BD830680F
:100C800010F00C0FF6D16CE02178890707D5D8F861
:100C90000020A36822F0F0021A43C8F8002021784F
:100CA000C9074CD06168012928D0022929D003291D
:100CB00027D000688007002849DAD8F8002022F001
:100CC00003020A43C8F80020FFF7E4FE064600E0EE
:100CD0003DE0606801281DD0022829D0032838D0C3
:100CE000AB464546286810F00C0F28D0FFF7D2FE1F
:100CF000811B5945F6D90320BDE8F09F00688003A9
:100D0000D9E700688001D6E7FFF7C4FE811B59458B
:100D100002D9F0E7AB4645462868C0F381000128B8
:100D2000F2D10CE0FFF7B6FE811B594502D9E2E78C
:100D3000AB4645462868C0F381000228F2D18AF804
:100D40000090DAF8000000F00F00B84209D001204E
:100D5000D2E744462068FFF79DFE801BA842F9D9E0
:100D6000C9E72078400707D5D8F80010E26821F4D9
:100D7000E0511143C8F800102078000708D5D8F8D2
:100D80000010226921F4604141EAC201C8F8001054
:100D90000F20FFF7A7FE0020AEE70000003C024056
:100DA0000038024010B500F017F808490968F02231
:100DB00092FAA2F201F0F001B2FA82F2D140044AB2
:100DC000515CC8400349086010BD0000083802406B
:100DD000EE2200084400002030B51948006810F0E9
:100DE0000C01184812D0441004290ED008290DD146
:100DF0001349091F0A6802F03F030A68550247F6C3
:100E0000C07204D5B4FBF3F003E0204630BDB0FB64
:100E1000F3F00B680968134092FAA2F2B2FA82F278
:100E2000D34058434FF4403292FAA2F201F44031D9
:100E3000B2FA82F2D140491C4900B0FBF1F030BD5A
:100E4000083802400024F4002DE9F84F04460078E9
:100E5000DFF81CA3C74DC0074FF000064BD0DAF8EF
:100E600000105046C1F38101012908D00068C0F389
:100E7000810002280AD1281D0068400206D5286892
:100E8000800338D56068002871D034E0DFF8E49240
:100E900009F1020989F80060FFF7FCFD804641F284
:100EA000883705E0FFF7F6FDA0EB0800B8427DD8D3
:100EB00028688003F6D4207989F80000606868B15A
:100EC000FFF7E8FD804605E0FFF7E4FDA0EB080032
:100ED000B842ECD828688003F6D50CE0FFF7DAFDBD
:100EE000804605E0FFF7D6FDA0EB0800B842DED84B
:100EF00028688003F6D420789F4F80074FF0010BBD
:100F000045D5DAF80010504611F00C0F4FF0F809F3
:100F100009D00068C0F3810002280BD19448001F5B
:100F20000068400206D42868800714D5E0680128CC
:100F30001DD110E0E068D8B1C7F800B0FFF7AAFDF6
:100F4000804605E0FFF7A6FDA0EB08006428AED8B8
:100F500028688007F6D5286899FAA9F22169B2FABB
:100F600082F220F0F8009140084328600FE0FCE096
:100F70003E60FFF78FFD804606E000BFFFF78AFD69
:100F8000A0EB0800642811D828688007F6D42078E0
:100F9000000729D5DFF8D8917848616909F16C0913
:100FA00099B1C0F800B0FFF775FD00E086E080461B
:100FB00006E000BFFFF76EFDA0EB080064287DD8B7
:100FC000D9F800008007F5D50EE00660FFF762FD56
:100FD000804605E0FFF75EFDA0EB080064286DD8B1
:100FE000D9F800008007F5D4207840075AD560482A
:100FF0003830016841F0805101600068DFF880916D
:1010000000F080500090D9F8001041F48071C9F8C8
:101010000010FFF73FFD804606E000BFFFF73AFDF6
:10102000A0EB0800642849D8D9F80000C005F5D520
:10103000DFF83C8108F1680888F80060FFF72AFDB6
:1010400041F28839009005E0FFF724FD0099411A2C
:10105000494533D8D8F800008007F5D4207A88F8BD
:101060000000A06878B1FFF715FD009006E000BF12
:10107000FFF710FD0099411A49456ED8D8F80000D5
:101080008007F5D50EE0FFF705FD009006E000BFF4
:10109000FFF700FD0099411A49455ED8D8F80000D5
:1010A0008007F5D4A069E8B3DAF80010C1F3810134
:1010B00002295AD002283E6605D000E04DE0FFF735
:1010C000E9FC04464CE0FFF7E5FC064605E000BFFE
:1010D000FFF7E0FC801B64283FD828688001F7D424
:1010E000D4E90701084347F6C07292FAA2F2616A96
:1010F000B2FA82F29140A26A4FF0FF3303EB520240
:101100004FF4403393FAA3F3B3FA83F39A401143B5
:1011100008434FF0706292FAA2F2E16AB2FA82F2E8
:10112000914000E01FE008431149091F0860C7F81B
:1011300060B0FFF7AFFC044605E000BFFFF7AAFC74
:10114000001B642809D828688001F7D50BE000BF90
:10115000FFF7A0FC001B642802D90320BDE8F88F2C
:1011600028688001F4D40020F8E70120F6E70000A9
:10117000083802400038024000004742800E4742D3
:101180000070004070B5040004D094F851000025B0
:1011900010B106E0012070BD84F85050204600F0E8
:1011A00033F8022084F851002068016821F04001E2
:1011B0000160D4E901010843D4E903121143084353
:1011C00061690843218B01F400710843E169084318
:1011D000216A0843A16A084321680860A0690421C4
:1011E00001EA1040616A0843216848602168E06AAA
:1011F00008612068C16921F40061C1616565012051
:1012000084F85100002070BD2DE9F04300684D497D
:1012100087B088427DD14C48016841F001010160EE
:10122000016801F001010591016841F002010160CE
:10123000016801F002010591016841F001010160BE
:10124000016801F001010591016841F001010160AF
:10125000016801F001010591016841F0010101609F
:10126000016801F001010591016841F0010101608F
:10127000006800F00100059033481430016841F423
:1012800080510160006801254FF480760024CDE98B
:10129000006500F48050CDE90440CDE90254DFF848
:1012A000AC9069464846FFF727FB00223146484686
:1012B000FFF7EBFB08200226CDE9000602AA032770
:1012C0004FF0050882E8C00169462148FFF714FB8A
:1012D0004020CDE9000602AA694682E8900148460E
:1012E000FFF70AFB8020CDE9000602AA694682E8E2
:1012F00090014846FFF700FBCDE900650295CDE976
:10130000037469464846FFF7F7FA0122022148466E
:1013100000E013E0FFF7B9FB0E4801A9009581E852
:101320009100694648460494FFF7E6FA002203213B
:101330000620FFF7FFFB0620FFF7F1FB07B0BDE833
:10134000F0830000003001403038024000000240CD
:1013500000040240000011102DE9F843044690F803
:101360005100DDF82080012801D022287ED169B10A
:1013700062B15BB194F85000012877D0012684F85F
:10138000506094F85100012803D005E00120BDE829
:10139000F883322084F8510000256565A263A38795
:1013A000E3872163A386E386A564E564A06A4FF41E
:1013B0000057B84209D12068016821F4005101604A
:1013C0002068016841F40051016020680168490605
:1013D00003D4016841F040010160E0684FF482717C
:1013E000B0F5006F606807D0002867D088426ED1E2
:1013F000E08E012862D06AE020B188420CD1E08EF4
:10140000012809D1206B21680088C860206B801CEE
:101410002063E08E401EE086E08E80B9A06AB8426C
:1014200044D12068016841F4805101603EE02068A9
:10143000C068A16B0880A06B801CA0639EE043463F
:1014400000220221204600F00AFA002874D1206B05
:1014500021680088C860206B801C2063E08E401EDD
:101460000004000CE08609D1A06A00E0C7E0B842A1
:1014700004D12068016841F4805101604346002294
:101480000121204600F0EBF900286FD12068C068E8
:10149000A16B0880A06B801CA063E08F401EE087DA
:1014A000E08E0028CBD1606800286AD14346002234
:1014B0000121204600F0D3F9F0BBB8E7206B411CB6
:1014C000216321680078C860E08E401EE086E08ECF
:1014D00098B9A06AB84204D12068016841F48051EB
:1014E0000160434600220121204600F0B8F918BBF4
:1014F0002068C068A16B087040E0434600220221CA
:10150000204600F0ACF9B8B9206B411C216321687A
:101510000078C860E08E401E0004000CE08607D111
:10152000A06AB84204D12068016841F4805101608A
:1015300000224346012100E018E0204600F08FF928
:10154000A0B92068C168A06B421CA2630170E08F43
:10155000401EE087E08E0028CFD1606888B94346FE
:1015600000220121204600F07AF908B103200EE79D
:101570002068C168A06B421CA2630170E08F401E0E
:10158000E087A06AB84210D14346002201212046DC
:1015900000F065F918B1606D40F002000FE02068BE
:1015A000C068ADF80000BDF800004346012280216C
:1015B000204600F054F920B1606D40F010006065E5
:1015C000D4E784F8516020688168A26AC1F30011F1
:1015D000BA4210D179B1616D41F0020161650168D3
:1015E00021F4005101602068016841F4005101605C
:1015F00084F85050CAE684F850500020C7E6022014
:10160000C5E610B5401EB0F1807F01D3012010BDAA
:101610004FF0E02460610F21601700F00BF900200B
:10162000A06107202061002010BD000070B5441C9F
:10163000007804281BD12078184D052812D03E28A8
:1016400016D0FF2813D16088A21CA0F54060013895
:1016500017D013280BD16888002808D0BDE8704047
:1016600000F037BB0020A880607900F00BFC70BD53
:1016700014F8020F0128FAD100F002FC608868809B
:1016800070BD917A921CD07919B1093200F000FC3A
:1016900070BD0128FCD1A88070BD000008000020AA
:1016A00070B50B4800F072FD0948083000F06EFD7F
:1016B000084D0024C4EBC40000EB800005EB800162
:1016C000034800F06DFD641CE4B2052CF2D370BD3C
:1016D00060000020DC00002008B50020009027E01A
:1016E000174800F064FD30B115490120091F08704A
:1016F000FFF7CCF808BD6946114800F05FFD00997E
:10170000802210480831FFF705F810F0FF0105D0DE
:10171000009880F8881000F057F820B10848009928
:1017200000F037FD04E006480099083000F038FD6D
:10173000FFF7ACF8FEF7CAFF0028D1D108BD0000C2
:10174000600000208400002030B5A1B00024209467
:10175000FFF7A5F810E020A9164800F02FFDFFF7CD
:10176000AFF820980830FFF761FFFFF798F81148AD
:101770002099083800F014FD0E4800F018FD0028EC
:10178000E9D00C4D0C3D287858B90FE0802269460D
:101790000948FEF7BFFF10F0FF0F02D06846FFF7C1
:1017A00045FFFEF793FF0028F0D12C70FFF788F873
:1017B00021B030BD6800002084000020014800F006
:1017C000F6BC000068000020027A00F10801042A3B
:1017D00001D00120704790F888008978C01E8142AE
:1017E00001D002207047002070470000FEB5074678
:1017F0000D480E460A2100681C46B0FBF1F1154663
:1018000001A800F0DDF8E4B2EBB2324639460748F1
:101810000094FEF7CDFF002804D001A800F0C2F824
:101820000028F1D0FEBD0000E42200088400002062
:10183000FEE770470907090E002806DA00F00F00DE
:1018400000F1E02080F8141D704700F1E02080F8DE
:1018500000147047FEF772BDFEF774BD70472DE9A6
:10186000F0471D4690460E460446FFF713F907461B
:101870005FEA08004FF000084FF4005A4FF00109EA
:1018800026D034E0681C23D025B1FFF703F9C01B34
:10189000A8421DD92068416821F0E001416020681C
:1018A000016821F040010160A06A504509D120681B
:1018B000016821F4005101602068016841F4005181
:1018C000016084F8519084F850800320BDE8F087CF
:1018D0002068806836EA0000D4D10DE0681C06D08C
:1018E000002DD7D0FFF7D6F8C01BA842D2D8206869
:1018F000806836EA0000F1D00020E7E7704700007A
:1019000010B5FFF7CDF802484168491C416010BD91
:101910000000002030B591B002240125062000947B
:10192000CDE903500020CDE90640102008900001C9
:10193000099008200A9004200B906846FFF784FA6B
:10194000CDE90C5401210CA8FFF726F911B030BDE8
:101950001048016841F4700101600F48016841F0CE
:10196000010101600C4A00210832116002680B4B32
:101970001A400260031D0A4A1A60026822F480229B
:10198000026005480C300160024958068039086041
:101990007047000088ED00E000380240FFFFF6FECF
:1019A0001030002410B50446FEF776FF2168401A77
:1019B0006168401C814201D2012010BD002010BD91
:1019C00010B504464160FEF767FF206010BD0000BF
:1019D00010B5044C2078002803D000F089FA0020CC
:1019E000207010BD0800002070B58AB01C468DF82C
:1019F00020008DF82110DDE90E658DF822200722E8
:101A000000216846FFF728FF1822002102A8FFF7EF
:101A100023FF3F20ADF808008A20ADF80A0008A88F
:101A200004900320059007200790CDF818D00021DE
:101A300002A800F007FB002802DAFF200AB070BD00
:101A40009DF800000028F9D1BDF801002080BDF804
:101A500003003080BDF8050028800020EEE72DE966
:101A6000F0438FB01D46134616AA6C4692E8C00399
:101A70008DF800008DF8011010221946A01CFFF708
:101A8000E9FE8DF812508DF813608DF81470CDF8C2
:101A900015808DF819901822002107A8FFF7DCFEA9
:101AA0003F20ADF81C008620ADF81E001A20CDE9BD
:101AB00009400DA80B9001200C90002107A800F010
:101AC000C1FA002803DAFF200FB0BDE8F0839DF8CB
:101AD0003400F9E72DE9FF4F91B09846DDE91F5931
:101AE000DDE9216BA9190E31DDF878A0282903D989
:101AF000422015B0BDE8F08F6C468DF8000001273C
:101B0000022212A9601CFFF7A5FEE01C022213A905
:101B1000FFF7A0FE8DF805808DF806A08DF8075020
:101B20002A46494602A8FFF795FE0835E8B2324634
:101B30002654401CC5B260195946FFF78BFEA81900
:101B4000C5B26019022223A9FFF784FEAD1CEDB2D5
:101B50006019022224A9FFF77DFEAD1CEDB2182208
:101B600000210AA8FFF778FE3F20ADF82800832067
:101B7000ADF82A0010A80F970C94CDE90D50002164
:101B80000AA800F05FFA002801DAFF20B1E79DF80B
:101B90004000AEE72DE9FF4F8FB00D46DDE91C8B0D
:101BA00007AC1F46204602220FA9DDF87CA0DDF815
:101BB0008490FFF74FFE03268DF81E50012D3BD079
:101BC0001025E01C2A461199FFF744FEED1C032264
:101BD00067556D1C04F805806D1C04F805B06D1C7C
:101BE000E8B21E992154401CC0B204F800A0401C69
:101BF000C0B220992154401CC5B200216846FFF7AD
:101C00002BFE1822002101A8FFF726FE3F20ADF889
:101C100004004FF48270ADF806006846CDE9045028
:101C200000210696039401A800F00CFA002805DABA
:101C3000FF2013B0BDE8F08F0225C2E79DF8000039
:101C40000028F6D1BDF80110A9F80010F1E72DE940
:101C5000F0418CB01E46DDF84880174607AD8DF880
:101C60001C0001282AD010242246681CFFF7F2FD30
:101C7000641C03222F55641C00212E556846641CE9
:101C8000FFF7EAFD1822002101A8FFF7E5FD3F203C
:101C9000ADF804004FF48170ADF806006846CDE958
:101CA0000440032006900395002101A800F0CAF922
:101CB000002805DAFF200CB0BDE8F0810224D3E74C
:101CC0009DF800000028F6D1BDF80110A8F800101A
:101CD000F1E700B589B01822ADF81C000021684674
:101CE000FFF7BAFD3F20ADF8000040F22710ADF835
:101CF000020007A802900220039006A80490012089
:101D000005900021684600F09DF9002802DAFF20C6
:101D100009B000BD9DF81800FAE700B587B0182299
:101D200000216846FFF798FD3F20ADF8000040F223
:101D30000110ADF8020006A80490012005900021D2
:101D4000684600F07FF9002802DAFF2007B000BDE6
:101D50009DF81800FAE72DE9FF41A8B09E1DDDF8B7
:101D6000C8801D461746802E03D942202CB0BDE8FE
:101D7000F0816C462046022228A9FFF76BFDA01CCB
:101D8000022229A9FFF766FD8DF804708DF8055031
:101D9000A01D2A464146FFF75DFDF5B2182200213D
:101DA00020A8FFF759FD3F20ADF880004FF4837065
:101DB000ADF8820026A82294CDE923500120259079
:101DC000002120A800F03EF9002801DAFF20CDE72D
:101DD0009DF89800CAE700B589B018228DF81C005C
:101DE0008DF81D1000216846FFF736FD3F20ADF845
:101DF00000000F20ADF8020007A802900220039017
:101E000006A80490012005900021684600F01AF908
:101E1000002802DAFF2009B000BD9DF81800FAE79B
:101E200070B58D1CA8B01346802D02D9422028B071
:101E300070BD8DF800006C468DF801100A46012631
:101E40001946A01CFFF706FDEDB21822002120A8BC
:101E5000FFF702FD3F20ADF880000C20ADF88200B6
:101E600026A825962294CDE92350002120A800F031
:101E7000E9F8002801DAFF20D9E79DF89800D6E7B5
:101E800070470000014901200870704708000020D9
:101E9000107820B1012805D10020FEF7FBBB0020FF
:101EA000FEF706BC704700000149488070470000FB
:101EB0001E00002070B50546FEF7DCF9084CC2B2E2
:101EC000294662700748FEF7F4F904F11C00092165
:101ED00000F8011B62782946FEF7EBF970BD00009F
:101EE000080000207000002001460120FFF773BFAA
:101EF00030B515A089B00068002107900325084679
:101F000000F056F8124C1148009063780022618A64
:101F1000208AFFF720FF002007A9CDE904100395D0
:101F20000690617804F11C02491CC9B28DE80700D3
:101F3000901F0023418818460A46FFF7CBFD002872
:101F400000D0FEE709B030BD02FE90007000002016
:101F5000080000201FB5FFF7E0FE10B1682004B0B4
:101F600010BD1149881E831ECDE9000112380021E1
:101F700042780120FFF738FD08B16920EFE701231F
:101F80000A4A002110208DE80F0007230A4601208D
:101F9000FFF765FD08B16A20E1E7FEF793FA002834
:101FA000DDD06B20DBE700001C00002040E20100D8
:101FB00030B58FB00D460446202200216846FFF759
:101FC0004BFC8DF800401F2C00D91F2422466C4684
:101FD0002946601CFFF73EFC1822002108A8FFF7E5
:101FE0003BFC0820ADF820000920ADF8220020209D
:101FF000CDE90A400EA80C9001200D90002108A800
:1020000000F020F8002802DAFF200FB030BD9DF864
:102010003800FAE77CB560F39F21ADF8001001208D
:1020200014468DF802208DF8040069461D460322EF
:10203000481DFFF70FFC23460422294601A800F0A3
:10204000A3F87CBDF0B50F460446018840888BB0EC
:1020500061F39F2085B24A480A210068B0FBF1F67F
:102060000020069004A800F091F8227B6188208867
:10207000A368FFF7CFFFAFBB06B90126314607A81B
:10208000FFF79EFC07A8FFF78DFC00286ED1FFF735
:1020900095FB0028F6D1FEF702FC06A9394800F0AE
:1020A0008DF8069800F10803017A042902D0014650
:1020B00004A854E090F888205B78D21E00F10B0150
:1020C0000E2B15D00F2B04D0102B4FD03E2B36D11A
:1020D00019E04B88AB4249D163680F2B03D00978D4
:1020E000F1BB2CE01DE0606909E06261206916E047
:1020F000B1F80100A84239D1C91C6069D21E9042D2
:10210000F3DC0246F1E70B786668B34217D16069E9
:10211000521E904200DC02466261491C2069FFF7B2
:1021200099FB18480699083800F033F804A91548B7
:1021300000F08CF8FEF7C4FB00200BB0F0BD0146A8
:1021400004A800F02DF80F48083800F030F850B11E
:1021500069460C4800F032F80A480099083800E057
:1021600004E000F01DF8FEF7ABFB8BE704A905487F
:1021700000F06CF8FEF7A4FB4FF0FF30DDE7000045
:10218000E422000868000020FFF730BB00604060D8
:1021900070470268C1E9002001600868416070472B
:1021A000086042684A6041604868016070470168A1
:1021B000814201D1012070470020704700B50B46D5
:1021C00001681960006800F006F8196800200860CE
:1021D0001968486000BDD0E90012116003C8416071
:1021E000704700001CB517A113A5D1E90001072411
:1021F0006426CDE90001FEF75BFC0020FEF71EFA25
:10220000FFF788FBFEF700FAFFF74AFAFEF76AFAD3
:102210006846FEF7EFF92846FFF74CFEFFF79AFEF7
:102220002046FFF761FE3046FFF73EFEFFF78CFACF
:10223000FFF7CEFBFAE70000426C75654E52475F30
:1022400037000000080504030201000038B50C4601
:10225000054607E069462046FFF7B0FF284600998B
:10226000FFF79EFF2046FFF7A2FF0028F2D038BDFF
:1022700030B585B0012000900948019002200290FD
:1022800003200024CDE90304064D69462846FEF7E5
:1022900033FB694628460294FEF72EFB05B030BD9D
:1022A000000011100000024010B586B0012000901F
:1022B0000190032003900020064C029069462046BE
:1022C000FEF71AFB012211462046FEF7DEFB06B0A0
:1022D00010BD0000000002404FF04070E1EE100A17
:1022E00070470000E8030000070020000200000023
:1022F00000000102030401020304060708090000AC
:10230000202300080000002070000000D001000819
:10231000902300087000002088090000EC010008EC
:1023200000000000000000000107000000000100A4
:1023300006000A000D001000000000000000000070
:102340000000000009426C75654E52470000000015
:1023500000000000000000000008024000000240F1
:10236000E80300000024F40000000000000000006A
:102370000102030406070809000000000000000035
:10238000000000000000000000000000000000004D
:040000050800019559
:00000001FF
